:02000000322AA2
:0E0006000330FD00FD0B05280000000008007F
:020014000800E2
:100016000230FC00C830FD00FD0B0F28FC0B0F283A
:020026000800D0
:100028004101CC1B1A2840018F121C2840018F1651
:1000380041014C1B222840010F12242840010F16B1
:100048004101CC1A2A2840018F112C2840018F1514
:1000580041014C1A322840010F11342840010F1574
:10006800EE1838280F1439280F108F140A208F1013
:100078004101CC19422840018F12442840018F16B3
:1000880041014C194A2840010F124C2840010F1613
:100098004101CC18522840018F11542840018F1576
:1000A80041014C185A2840010F115C2840010F15D6
:1000B800EE1860280F1461280F108F140A208F1073
:0C00C800EE1C68280B20692803200800AB
:1000D4004001EE1041014B08CC001420EE1408003E
:1000E40040019410141014119411141294128F10CE
:1000F4000F108F120F128F110F110B200B200B20DA
:100104008F150F158F140A208F100B208F140A20BF
:100114008F100B208F140A208F100B200F118F14B7
:100124000A208F100B208F140A208F108F118F1626
:100134008F140A208F100B208F120F158F140A2092
:100144008F100F118F140A208F100B208F140A2088
:100154008F100F158F140A208F100B200F118F147E
:100164000A208F108F160F168F150F158F140A2063
:080174008F100B20EE140800AF
:10017C00CF2880304101C600E128C030C600E128FC
:10018C009430C600E128D430C600E1288030C60087
:10019C00E12841014608013A0319BF284608023AF2
:1001AC000319C3284608033A0319C6284608043A1B
:1001BC000319C928CC284703F0004608F00770083B
:1001CC00C6007008CC001420EE104101CA014A0888
:1001DC00480784000030493D8500000803190229B6
:1001EC004A08480784000030493D85000008CB00D0
:0E01FC006A204101CA0AED284001EE140800F5
:10020A0001304101CC0014202B2901304101C600E4
:10021A000130C7005C30C8000030C900BE20382950
:10022A0001304101C6000130C700B130C8000030BA
:10023A00C900BE20382901304101C6000130C7007B
:10024A00A030C8000030C900BE2038294101450845
:10025A00003A03190A294508013A031915294508DC
:10026A00023A0319202940016E1D46290230410134
:10027A00C6000130C7004C30C8000030C900BE209B
:10028A00502902304101C6000130C7002030C800A1
:08029A000030C900BE2008007D
:1002A200F030400192000F309700F30104307302E6
:1002B2000318C3290F3097007308F1000130F000D2
:1002C200710803196729F035FF3E6229F0097008A9
:1002D200970500000000000000000000F401043057
:1002E20074020318C12904307407F000F1010030D0
:1002F200F13D7008F2000130F0000030F1007208A8
:1003020003198729F035F10DFF3E81290D08F0050B
:100312000030F10570087104031DBF290430740711
:10032200F000F1010030F13D7008F2000130F00000
:100332000030F10072080319A229F035F10DFF3ED9
:100342009C290D08F0050030F10570087104031DA9
:10035200AB298F297308F000F101F035F10DF0356A
:10036200F10D3630F0078330F13D740870078400D8
:100372000030713D85000008F000C429F40A70299C
:08038200F30A5729F0010800FD
:10038A004001931413157E01CF144F150430FC005D
:10039A003D30FD00FD0BCF29FC0BCF2900000000EA
:1003AA00003040018E1801304101C4000030400184
:0803BA000E190130EF000800EC
:1003C20012001E00F003031DE129F103031DE129C0
:0203D200080021
:1003D4004101C5014408013A031D002A40018E1859
:1003E400002A0730FC007D30FD00FD0BF729FC0BD3
:1003F400F7298E18002A01304101C5000030400160
:0E0404008E1801304101C4004508F0000800C8
:100412004101C50140016F08013A031D1F2A0E194F
:100422001F2A0730FC007D30FD00FD0B162AFC0B55
:10043200162A0E191F2A01304101C5000030400161
:0E0442000E190130EF0041014508F0000800DE
:10045000722001304101CC0014200C304101CC004D
:04046000142008005C
:1004640046237E01C301D901CE012822C5216E1085
:100474006E11ED0101304101CC0014200130410125
:10048400C6000130C7003C30C8000030C900BE209F
:1004940002304101C6000130C7002F30C8000030CF
:1004A400C900BE206E18792A512170084F3A031DE5
:1004B400782A0730FC007D30FD00FD0B5F2AFC0B21
:1004C4005F2A512170084F3A031D692A632A6E146A
:1004D4006D084101C50005216230FC006530FD0056
:1004E400FD0B722AFC0B722A00000000542AEA2138
:1004F40070080319902A4001ED0A6D08023C0318A4
:10050400842AED016D084101C50005212730FC0056
:10051400F530FD00FD0B8C2AFC0B8C2A0922700897
:100524000319A32A04304001EE066D084101C500F9
:1005340005212730FC00F530FD00FD0B9F2AFC0B44
:100544009F2A40016E1DB62AAA2AB62AB62AB62ABE
:100554006D08003A0319A72A6D08013A0319A82A5D
:100564006D08023A0319A92A0430FC003D30FD004D
:10057400FD0BBA2AFC0BBA2A00000000792AC12A12
:10068C00C5308400823085004D30F0000130F1001F
:10069C002030860000308700E12112308400833046
:1006AC0085002430F0000130F100A03086000030CD
:0606BC008700E1210800A7
:10058A005234433432343A34533474346134723426
:0E059A0074342F34533474346F34703400349E
:1005A8007034613472346134203469346E3469349F
:0A05B8006334693461347234003496
:1005C200503472346534733469346F346E34653444
:1005D20020344F34203428344F344E3429340034FC
:1005E20045346E34203465346A346534633475348A
:1005F200633469346F346E342E342E342E34003426
:100602004D346F3464346F343A34203443347234AA
:100612006F346E346F346D346534743472346F34C5
:020622000034A2
:100624004D346F3464346F343A3420344634723485
:10063400653463342E344D346534743472346F3419
:02064400003480
:100646004D346F3464346F343A3420345434653462
:100656006D3470346F34723469347A34613464348E
:060666006F347234003411
:10066C003734383439344134343435343634423414
:10067C0031343234333443344F34303445344434ED
:020000040001F9
:0A000E007209E33E0B3F03100300EC
:00000001FF
