:02000000C32A11
:020006000800F0
:0E0008000330FD00FD0B06280000000008007C
:100016000230FC00C830FD00FD0B0F28FC0B0F283A
:020026000800D0
:100028004101D91B1A2840018F121C2840018F1644
:100038004101591B222840010F12242840010F16A4
:100048004101D91A2A2840018F112C2840018F1507
:100058004101591A322840010F11342840010F1567
:1000680041013E183A2840010F143C2840010F1066
:100078008F1403208F104101D919452840018F1290
:10008800472840018F16410159194D2840010F1288
:100098004F2840010F164101D918552840018F11EA
:1000A800572840018F15410159185D2840010F114B
:1000B8005F2840010F1541013E18652840010F14C3
:1000C800672840010F108F1403208F1041013E1C38
:0A00D8006F280B2070280420080098
:1000E2004001F8010830FC00700DF80D7408F802A8
:1000F20003187D28F8070310F00DFC0B7528080083
:1001020041013E105808D900142041013E14080054
:100112009A2880304101D200AC28C030D200AC28ED
:100122009430D200AC28D430D200AC288030D20037
:10013200AC2841015208013A03198A285208023AAE
:1001420003198E285208033A031991285208043AD7
:100152000319942897285303F0005208F0077008F7
:10016200D2007008D900142041013E10D601560871
:10017200540784000030553D850000080319CC283F
:100182005608540784000030553D85000008D80009
:0A0192008120D60AB8283E140800A8
:10019C0040019410141014119411141294128F1015
:1001AC000F108F120F128F110F110B200B200B2021
:1001BC008F150F158F1403208F100B208F14032015
:1001CC008F100B208F1403208F100B200F118F1406
:1001DC0003208F100B208F1403208F108F118F167C
:1001EC008F1403208F100B208F120F158F140320E8
:1001FC008F100F118F1403208F100B208F140320DE
:10020C008F100F158F1403208F100B200F118F14CC
:10021C0003208F108F160F168F150F158F140320B8
:0A022C008F100B2041013E14080062
:100236004101D5010330550203182B2955085307F0
:1002460086000030543D870030308100D50A1D29D4
:100256005508530786000030543D87008101D503B9
:100266005208003A0319572955085307D60000309B
:10027600543DD7000A30F4005208F0007120780887
:10028600F0003030F0074101560886005708870015
:1002960070088100D5030A30F4005208F00071207E
:0A02A60070084101D200332908005E
:0A02B0004001CE01C001C1010800A9
:0A02BA004001CE01C001C10108009F
:1002C4004101C10140016F08013A031D78298E18CC
:1002D40078290730FC007D30FD00FD0B6F29FC0BF5
:1002E4006F298E18782901304101C1000030400186
:0E02F4008E180130EF0041014108F0000800B3
:1003020001304101D9001420A52901304101D20058
:100312000130D3004230D4000030D5008920B22908
:100322000130D2000130D3003230D4000030D50089
:100332008920B2290130D2000130D3002230D4000A
:100342000030D5008920B22941014108003A031941
:1003520086294108013A031991294108023A0319F1
:100362009B290230D2000130D3002030D40000306B
:06037200D50089200800FF
:10037800F030400192000F309700F301043073020F
:1003880003182E2A0F3097007308F1000130F0008F
:1003980071080319D229F035FF3ECD29F0097008FC
:1003A800970500000000000000000000F401043080
:1003B800740203182C2A04307407F000F10100308D
:1003C800F13D7008F2000130F0000030F1007208D1
:1003D8000319F229F035F10DFF3EEC290D08F0055F
:1003E8000030F10570087104031D2A2A04307407CF
:1003F800F000F1010030F13D7008F2000130F0002A
:100408000030F100720803190D2AF035F10DFF3E96
:10041800072A0D08F0050030F10570087104031D66
:10042800162AFA297308F000F101F035F10DF035BC
:10043800F10D4130F0078430F13D740870078400F5
:100448000030713D85000008F0002F2AF40ADB29EE
:08045800F30AC229F0010800BB
:10046000CE200130D90014200C304101D9001420D5
:02047000080082
:100472004001ED0A0A306D02031C522AED01C10A45
:100482000A304102031C522AC101C00A3C30400218
:10049200031C522AC001CE0A64304E02031C522AA7
:0404A200CE0108007F
:1004A60040014E084101D200CA30D3000030D400CA
:1004B6001B21400140084101D200CE30D30000305C
:1004C600D4001B214B08C1004C08C2003A30C300BF
:1004D6004F08C4005008C5002E30C6003030400119
:1004E60041074101C700C8010230D2000130D300E4
:0C04F600C130D4000030D500892008007F
:100502004101C10140016E08013A031D972A0E19EB
:10051200972A0730FC007D30FD00FD0B8E2AFC0B74
:100522008E2A0E19972A01304101C1000030400184
:0E0532000E190130EE0041014108F0000800F2
:1005400012001E00F003031DA02AF103031DA02AC0
:020550000800A1
:100552004001931413157E01CF144F150430FC0093
:100562003D30FD00FD0BB32AFC0BB32A0000000056
:10057200003040018E180130EF0000300E190130BA
:04058200EE0008007F
:1005860052247E01C301D901CE0140011310181077
:100596003022A92241013E11BE10BF015D2101306A
:1005A6004101D900142001304101D2000130D300AD
:1005B600AD30D4000030D50089200230D2000130A1
:1005C600D300A030D4000030D50089203E19142B6A
:1005D600BC2170084101C00070084F3A031D132B5F
:1005E6000730FC007D30FD00FD0BF72AFC0BF72AD7
:1005F600BC2170084F3A031D012BFB2A41013E1511
:100606004001181441013F08C10081216230FC00FD
:100616006530FD00FD0B0D2BFC0B0D2B00000000C3
:10062600E92A6221700803192F2BBF0A3F08023CF2
:1006360003181E2BBF01BE103F08C10081213F08D1
:10064600003A031D272B58212730FC00F530FD000A
:10065600FD0B2B2BFC0B2B2B812270080319402B37
:100666000230BE063F08C10081212730FC00F5306C
:10067600FD00FD0B3C2BFC0B3C2BBC217008410103
:10068600C0003F08003A031D602B4008303A031DA6
:10069600602B0230BE063F08C10081214130FC00BC
:1006A600EE30FD00FD0B552BFC0B552B0000BC213D
:1006B6007008303A031D602B5A2B41013F08003A5F
:1006C600031D692BBE1C682B39225322BC217008DE
:1006D6004101C00070084F3A031DC62B0730FC00CD
:1006E6007D30FD00FD0B752BFC0B752BBC217008B6
:1006F6004F3A031D7F2B792B41013E11BE1040015D
:10070600181001304101D900142001304101D200F6
:100716000130D3005C30D4000030D500892002308F
:10072600D2000130D3004F30D4000030D5008920EC
:100736003E19C62BBC2170084101C00070084F3A13
:10074600031DC52B0730FC007D30FD00FD0BA92BDA
:10075600FC0BA92BBC2170084F3A031DB32BAD2B04
:1007660041013E154001181441013F08C100812195
:100776006230FC006530FD00FD0BBF2BFC0BBF2B70
:10078600000000009B2B0430FC003D30FD00FD0BFB
:0E079600CA2BFC0BCA2B00000000142BD12B29
:1008A400D5308400833085004E30F0000130F100F3
:1008B4002030860000308700A0222330840084305A
:1008C40085001E30F0000130F100A03086000030B9
:0608D4008700A0220800CD
:0407AA0020340034C3
:1007AE0020344634723465346334753465346E34B3
:1007BE00633469346D346534743472346F34003498
:1007CE002034543465346D3470346F34723469347B
:0C07DE007A34613464346F3472340034B7
:0207EA000034D9
:0207EC000034D7
:1007EE002034433472346F346E346F346D34653468
:0807FE00743472346F340034CE
:020806000034BC
:100808007034613472346134203469346E3469343C
:0A0818006334693461347234003433
:100822002034503472346534733469346F346E3426
:10083200653420344F34203428344F344E34293434
:02084200003480
:0208440000347E
:100846007034613472346134203469346E346934FE
:0A08560063346934613472340034F5
:100860002034503472346534733469346F346E34E8
:10087000653420344F34203428344F344E342934F6
:02088000003442
:1008820037343834393441343434353436344234FC
:1008920031343234333443344F34303445344434D5
:020000040001F9
:0A000E007209E33E0B3F03100300EC
:00000001FF
